{
  "_format": "hh-sol-artifact-1",
  "contractName": "TodoList",
  "sourceName": "contracts/TodoList.sol",
  "abi": [
    {
      "inputs": [],
      "stateMutability": "nonpayable",
      "type": "constructor"
    },
    {
      "anonymous": false,
      "inputs": [
        {
          "indexed": false,
          "internalType": "uint256",
          "name": "id",
          "type": "uint256"
        },
        {
          "indexed": false,
          "internalType": "string",
          "name": "taskname",
          "type": "string"
        },
        {
          "indexed": false,
          "internalType": "bool",
          "name": "status",
          "type": "bool"
        }
      ],
      "name": "TaskCreated",
      "type": "event"
    },
    {
      "anonymous": false,
      "inputs": [
        {
          "indexed": false,
          "internalType": "uint256",
          "name": "id",
          "type": "uint256"
        },
        {
          "indexed": false,
          "internalType": "bool",
          "name": "status",
          "type": "bool"
        }
      ],
      "name": "TaskStatus",
      "type": "event"
    },
    {
      "inputs": [
        {
          "internalType": "string",
          "name": "_taskname",
          "type": "string"
        }
      ],
      "name": "createTask",
      "outputs": [],
      "stateMutability": "nonpayable",
      "type": "function"
    },
    {
      "inputs": [],
      "name": "taskCount",
      "outputs": [
        {
          "internalType": "uint256",
          "name": "",
          "type": "uint256"
        }
      ],
      "stateMutability": "view",
      "type": "function"
    },
    {
      "inputs": [
        {
          "internalType": "uint256",
          "name": "",
          "type": "uint256"
        }
      ],
      "name": "tasks",
      "outputs": [
        {
          "internalType": "uint256",
          "name": "id",
          "type": "uint256"
        },
        {
          "internalType": "string",
          "name": "taskname",
          "type": "string"
        },
        {
          "internalType": "bool",
          "name": "status",
          "type": "bool"
        }
      ],
      "stateMutability": "view",
      "type": "function"
    },
    {
      "inputs": [
        {
          "internalType": "uint256",
          "name": "_id",
          "type": "uint256"
        }
      ],
      "name": "toggleStatus",
      "outputs": [],
      "stateMutability": "nonpayable",
      "type": "function"
    }
  ],
  "bytecode": "0x60806040523480156200001157600080fd5b50620000586040518060400160405280601281526020017f546f646f204c697374205475746f7269616c00000000000000000000000000008152506200005e60201b60201c565b62000611565b60008081548092919062000072906200016c565b919050555060405180606001604052806000548152602001828152602001600015158152506001600080548152602001908152602001600020600082015181600001556020820151816001019081620000cc919062000429565b5060408201518160020160006101000a81548160ff0219169083151502179055509050507f05d0fb833127fc08168556d0e7ca9554fc3f6bc843b3b7d2bf1c35aea6bab6606000548260006040516200012893929190620005cd565b60405180910390a150565b7f4e487b7100000000000000000000000000000000000000000000000000000000600052601160045260246000fd5b6000819050919050565b6000620001798262000162565b91507fffffffffffffffffffffffffffffffffffffffffffffffffffffffffffffffff8203620001ae57620001ad62000133565b5b600182019050919050565b600081519050919050565b7f4e487b7100000000000000000000000000000000000000000000000000000000600052604160045260246000fd5b7f4e487b7100000000000000000000000000000000000000000000000000000000600052602260045260246000fd5b600060028204905060018216806200023b57607f821691505b602082108103620002515762000250620001f3565b5b50919050565b60008190508160005260206000209050919050565b60006020601f8301049050919050565b600082821b905092915050565b600060088302620002bb7fffffffffffffffffffffffffffffffffffffffffffffffffffffffffffffffff826200027c565b620002c786836200027c565b95508019841693508086168417925050509392505050565b6000819050919050565b60006200030a62000304620002fe8462000162565b620002df565b62000162565b9050919050565b6000819050919050565b6200032683620002e9565b6200033e620003358262000311565b84845462000289565b825550505050565b600090565b6200035562000346565b620003628184846200031b565b505050565b5b818110156200038a576200037e6000826200034b565b60018101905062000368565b5050565b601f821115620003d957620003a38162000257565b620003ae846200026c565b81016020851015620003be578190505b620003d6620003cd856200026c565b83018262000367565b50505b505050565b600082821c905092915050565b6000620003fe60001984600802620003de565b1980831691505092915050565b6000620004198383620003eb565b9150826002028217905092915050565b6200043482620001b9565b67ffffffffffffffff81111562000450576200044f620001c4565b5b6200045c825462000222565b620004698282856200038e565b600060209050601f831160018114620004a157600084156200048c578287015190505b6200049885826200040b565b86555062000508565b601f198416620004b18662000257565b60005b82811015620004db57848901518255600182019150602085019450602081019050620004b4565b86831015620004fb5784890151620004f7601f891682620003eb565b8355505b6001600288020188555050505b505050505050565b6200051b8162000162565b82525050565b600082825260208201905092915050565b60005b838110156200055257808201518184015260208101905062000535565b60008484015250505050565b6000601f19601f8301169050919050565b60006200057c82620001b9565b62000588818562000521565b93506200059a81856020860162000532565b620005a5816200055e565b840191505092915050565b60008115159050919050565b620005c781620005b0565b82525050565b6000606082019050620005e4600083018662000510565b8181036020830152620005f881856200056f565b9050620006096040830184620005bc565b949350505050565b610b1d80620006216000396000f3fe608060405234801561001057600080fd5b506004361061004c5760003560e01c8063111002aa1461005157806351db2e761461006d5780638d97767214610089578063b6cb58a5146100bb575b600080fd5b61006b600480360381019061006691906104bd565b6100d9565b005b6100876004803603810190610082919061053c565b6101a8565b005b6100a3600480360381019061009e919061053c565b61029e565b6040516100b293929190610612565b60405180910390f35b6100c361035d565b6040516100d09190610650565b60405180910390f35b6000808154809291906100eb9061069a565b91905055506040518060600160405280600054815260200182815260200160001515815250600160008054815260200190815260200160002060008201518160000155602082015181600101908161014391906108ee565b5060408201518160020160006101000a81548160ff0219169083151502179055509050507f05d0fb833127fc08168556d0e7ca9554fc3f6bc843b3b7d2bf1c35aea6bab66060005482600060405161019d93929190610612565b60405180910390a150565b60006001600083815260200190815260200160002090508060020160009054906101000a900460ff16158160020160006101000a81548160ff0219169083151502179055508060016000848152602001908152602001600020600082015481600001556001820181600101908161021f91906109d6565b506002820160009054906101000a900460ff168160020160006101000a81548160ff0219169083151502179055509050507faccf26a040a80e6a25119cb39da293ff807081080159d2c6db82f9c60077ea4c828260020160009054906101000a900460ff16604051610292929190610abe565b60405180910390a15050565b60016020528060005260406000206000915090508060000154908060010180546102c790610711565b80601f01602080910402602001604051908101604052809291908181526020018280546102f390610711565b80156103405780601f1061031557610100808354040283529160200191610340565b820191906000526020600020905b81548152906001019060200180831161032357829003601f168201915b5050505050908060020160009054906101000a900460ff16905083565b60005481565b6000604051905090565b600080fd5b600080fd5b600080fd5b600080fd5b6000601f19601f8301169050919050565b7f4e487b7100000000000000000000000000000000000000000000000000000000600052604160045260246000fd5b6103ca82610381565b810181811067ffffffffffffffff821117156103e9576103e8610392565b5b80604052505050565b60006103fc610363565b905061040882826103c1565b919050565b600067ffffffffffffffff82111561042857610427610392565b5b61043182610381565b9050602081019050919050565b82818337600083830152505050565b600061046061045b8461040d565b6103f2565b90508281526020810184848401111561047c5761047b61037c565b5b61048784828561043e565b509392505050565b600082601f8301126104a4576104a3610377565b5b81356104b484826020860161044d565b91505092915050565b6000602082840312156104d3576104d261036d565b5b600082013567ffffffffffffffff8111156104f1576104f0610372565b5b6104fd8482850161048f565b91505092915050565b6000819050919050565b61051981610506565b811461052457600080fd5b50565b60008135905061053681610510565b92915050565b6000602082840312156105525761055161036d565b5b600061056084828501610527565b91505092915050565b61057281610506565b82525050565b600081519050919050565b600082825260208201905092915050565b60005b838110156105b2578082015181840152602081019050610597565b60008484015250505050565b60006105c982610578565b6105d38185610583565b93506105e3818560208601610594565b6105ec81610381565b840191505092915050565b60008115159050919050565b61060c816105f7565b82525050565b60006060820190506106276000830186610569565b818103602083015261063981856105be565b90506106486040830184610603565b949350505050565b60006020820190506106656000830184610569565b92915050565b7f4e487b7100000000000000000000000000000000000000000000000000000000600052601160045260246000fd5b60006106a582610506565b91507fffffffffffffffffffffffffffffffffffffffffffffffffffffffffffffffff82036106d7576106d661066b565b5b600182019050919050565b7f4e487b7100000000000000000000000000000000000000000000000000000000600052602260045260246000fd5b6000600282049050600182168061072957607f821691505b60208210810361073c5761073b6106e2565b5b50919050565b60008190508160005260206000209050919050565b60006020601f8301049050919050565b600082821b905092915050565b6000600883026107a47fffffffffffffffffffffffffffffffffffffffffffffffffffffffffffffffff82610767565b6107ae8683610767565b95508019841693508086168417925050509392505050565b6000819050919050565b60006107eb6107e66107e184610506565b6107c6565b610506565b9050919050565b6000819050919050565b610805836107d0565b610819610811826107f2565b848454610774565b825550505050565b600090565b61082e610821565b6108398184846107fc565b505050565b5b8181101561085d57610852600082610826565b60018101905061083f565b5050565b601f8211156108a25761087381610742565b61087c84610757565b8101602085101561088b578190505b61089f61089785610757565b83018261083e565b50505b505050565b600082821c905092915050565b60006108c5600019846008026108a7565b1980831691505092915050565b60006108de83836108b4565b9150826002028217905092915050565b6108f782610578565b67ffffffffffffffff8111156109105761090f610392565b5b61091a8254610711565b610925828285610861565b600060209050601f8311600181146109585760008415610946578287015190505b61095085826108d2565b8655506109b8565b601f19841661096686610742565b60005b8281101561098e57848901518255600182019150602085019450602081019050610969565b868310156109ab57848901516109a7601f8916826108b4565b8355505b6001600288020188555050505b505050505050565b6000815490506109cf81610711565b9050919050565b8181036109e4575050610abc565b6109ed826109c0565b67ffffffffffffffff811115610a0657610a05610392565b5b610a108254610711565b610a1b828285610861565b6000601f831160018114610a4a5760008415610a38578287015490505b610a4285826108d2565b865550610ab5565b601f198416610a5887610742565b9650610a6386610742565b60005b82811015610a8b57848901548255600182019150600185019450602081019050610a66565b86831015610aa85784890154610aa4601f8916826108b4565b8355505b6001600288020188555050505b5050505050505b565b6000604082019050610ad36000830185610569565b610ae06020830184610603565b939250505056fea26469706673582212206f9f2d1434a85a1af7eb30b08b071ed4b242d23d6cf687f1f2df0d8f7b2b23b164736f6c63430008180033",
  "linkReferences": {},
  "deployedLinkReferences": {}
}